:100000000C94F0010C9453150C940D020C940D02F9
:100010000C940D020C940D020C940D020C940D0224
:100020000C940D020C940D020C940D020C940D0214
:100030000C940D020C940D020C940D020C940D0204
:100040000C940D020C940D020C940D020C940D02F4
:100050000C940D020C940D020C940D020C940D02E4
:100060000C940D020C940D02090220000101008085
:100070007D090400000258420000070582032000A9
:1000800004070502030800043403440075006100FE
:100090006C00200053007400720069006B00650062
:1000A0002000560033002E0033002E0031002000C7
:1000B0002800580042006F0078002900120110014A
:1000C000000000080304298E030301020001090255
:1000D0002200010100003E090400000103000000AD
:1000E000092101010001226E0007058103080004B7
:1000F0000501090615002501350045017501A1011D
:10010000850105070952094F0951095009E009E223
:1001100009E109280929092C092B093B093C090493
:1001200009070909090A090C090E09130914091517
:100130000916091A091B091D091E091F092209238D
:100140000926090195208102C0050C0901A101853C
:100150000209E909EA9502810295068101C034038A
:100160004400750061006C002000530074007200B0
:1001700069006B0065002000560033002E0033003C
:100180002E003100200028004D0041004D004500A8
:10019000290012011001000000080304288E030347
:1001A0000102000109022200010100003E090400D1
:1001B00000010300000009210101000122330007B2
:1001C0000581030800C80600FF0901A101150026EA
:1001D000FF007508850195060900B20201850295A8
:1001E000840900B20201850395030900B20201856A
:1001F0000495830900B20201C00E0348004900447F
:10020000002000450050002A0370006F0068006C59
:10021000002D006D00690063006800610065006CDE
:1002200000400067006D0078002E00620069007ACF
:10023000001201100100000008C016DF05030301D1
:1002400002000109022200010100003E0904000031
:100250000103000000092101010001224A000705F5
:10026000810308000105010905A1011500250135DB
:100270000045017501950D05091901290D8102053A
:10028000010900950381012507463B01750495018D
:100290006514093981429501090081014502250251
:1002A0007502950409300931093209358102C030DF
:1002B000034400750061006C00200053007400725C
:1002C0000069006B0065002000560033002E0033EB
:1002D000002E0031002000280050004300290009B2
:1002E000022200010100003E090400000103000099
:1002F00000092101010001227C0007058203100092
:100300000105010904A101A1027501950D15002542
:10031000013500450105091901290D810295038167
:10032000010501750495012507463B01651409394E
:100330008142650095018103A100750295042502A3
:10034000450209300931093209358102C0C07508FA
:10035000950826FF0046FF000600FF092009210935
:100360002209230924092509260927092809290919
:100370002A092B950C81020A2126B102C0320344BE
:1003800000750061006C0020005300740072006969
:10039000006B0065002000560033002E0033002E55
:1003A0000031002000280050005300330029001ABB
:1003B000037A007500720062006F00720067002E01
:1003C0000069006E0066006F00120110010000005D
:1003D00008C016DF0503030102000104030904003D
:1003E00011241FBECFEFD4E0DEBFCDBF11E0A0E0EF
:1003F000B1E0E0EEFDE202C005900D92A436B10737
:10040000D9F722E0A4E6B1E001C01D92A23CB207F8
:10041000E1F70E9498160C94EE160C940000A0E0F0
:10042000B1E0FC0143963D912191321305C0E817DC
:10043000F907C9F780E0089581E00895CF93DF932D
:10044000D82FC92F0E940F02882399F043E150E072
:1004500060E070E08D2F9C2F0E94D616ED2FFC2FB0
:10046000A0E0B1E0CF01439621912D93E817F90761
:10047000D9F7DF91CF910895CF93DF93EC0143E15A
:1004800050E060E070E080E091E00E94C61680914C
:100490000001823021F480910101843041F182E039
:1004A000888394E0998398E79A8391E09B8390E313
:1004B0009C8324E32D8394E49E839AE09F839CE2B3
:1004C000988793E299872A8728E22B8723E02C8755
:1004D00022E22D879E8796E59F8791E1988B9AE18E
:1004E000998B8A8BCE01DF91CF910C941E02E0E0B4
:1004F000F1E0CE01439621912993C817D907D9F786
:10050000DF91CF910895CF93DF93CDB7DEB7639797
:100510000FB6F894DEBF0FBECDBFCE0101960E948C
:100520003C0231990AC0589A0E94950B30990EC02E
:100530005898CE0101960E943C0263960FB6F8943B
:10054000DEBF0FBECDBFDF91CF9108950E94990B02
:10055000EDCF589A81E090E008955C9A469A589AB7
:1005600082E090E00895589A84E090E00895589AC7
:1005700085E090E008958091040186958670823030
:1005800011F45C9846980E948A0B58985B9A90E008
:1005900080E0089583E090E00895809102018770E3
:1005A000813011F40C94A902823011F40C94AD0244
:1005B000843011F40C94B302853011F40C94B7021A
:1005C0000C94BB0217B88FE388B914B885B989E0D9
:1005D0008AB980EE8BB90E948302809103014E9903
:1005E0003CC08F7C809303018091040186958770C5
:1005F000813011F0843011F45C9A469A80910201A6
:1006000090E0682F687083FB442740F9242F392F2E
:10061000982F907184FF02C02F5F3F4F482F407486
:1006200086FF02C02F5F3F4F70910301572F51701B
:1006300070FF02C02F5F3F4F782F707285FF02C09E
:100640002F5F3F4F877019F0233031052CF11B9934
:100650000EC0662361F00C94A902189903C08F7D27
:100660008061C0CF1999C0CF8F7E8062BBCF1C99AB
:1006700003C041110C94B3021A9903C051110C9498
:10068000B7021D9903C071110C94BB02329925C0A9
:10069000992319F10C94AD0222303105E1F41B9B32
:1006A0000AC01C9B08C01A9B06C01D9B04C04D9B22
:1006B00002C0339910C08130C1F06111CCCF8230BB
:1006C00089F09111E7CF843021F04111D3CF8530EB
:1006D00011F05111D4CF0C94CD028111FCCF83E0E5
:1006E00090E008954423A9F3C5CF992371F3D2CFA5
:1006F00090916C018091030182FD19C086B18095B3
:10070000817080936C01992321F081E090916C01BC
:10071000911180E090916B01992379F010926A0118
:1007200010926901882399F010926B01089586B1A7
:100730008695817021E08227E4CF882349F080915B
:1007400067019091680190936A018093690108950F
:100750008091690190916A010097C9F30197F3CFE5
:1007600080910401869587708130E1F44C9909C02D
:10077000369B07C0809103018F7D806180930301C8
:1007800008954C9B07C0369905C0809103018F7E68
:100790008062F4CF4C9B16C0369B14C0809103013D
:1007A0008F7CECCF8091030183FF0CC090916C0192
:1007B000992341F04E9907C08F7C8093030181E01B
:1007C00080936B010895189903C08F7D8061F5CFE8
:1007D0001999F8CF8F7E8062F0CF85E085BD0895AE
:1007E0001092660116BCA89A089558981092640158
:1007F0000895A89B08C0809166018F3F19F08F5F14
:1008000080936601A89A81E020916601909165012C
:10081000291708F480E00895CF9385E085BD809185
:10082000020183FF1BC00E94F5030E94A9020E94DF
:10083000CD0880916401882309F461C08FE0809322
:1008400065010E94F0030E94F903882309F45AC04D
:1008500080916401823011F40E94D40880910301D8
:1008600080FF1BC00E94F5030E94B7020E94D513AF
:1008700080916401882309F448C085E08093650174
:100880000E94F0030E94F903882309F441C080917B
:100890006401823011F40E94DC138091020184FF14
:1008A0001AC00E94F5030E94AD020E94F209C1E045
:1008B00080916401882379F180E5809365010E942D
:1008C000F0030E94F903882379F18091640182305A
:1008D00011F40E94080A8091020185FF28C00E943D
:1008E000F5032FE78CEF9AE0215080409040E1F72C
:1008F00000C000000E94BB02CF910C9499040E949A
:10090000291497CF0E9429149ECF0E942914B0CF9A
:100910000E942914B7CF0E9429140E941F07882320
:1009200039F2C0936401C4CF0E94F909CACFCF91B4
:1009300008958091040186958770823071F40E9439
:1009400078030E94B0038091030182958370813007
:1009500059F5469A5C98549A3E9A9091030196FFF5
:1009600006C030992DC031992BC045983D9A809191
:10097000040180FF0EC092FD29C0309924C0349933
:1009800022C044983C9A309929C0339927C0439893
:100990003B9A86958770833061F6349925C05C9ABE
:1009A000329924C0469AC5CF823019F45C9A469891
:1009B000D2CF8111D2CF54983E985C9A469ACDCF2F
:1009C0003D98459AD4CF3C98449ADDCF319909C0DF
:1009D000349907C044983C9A319BD7CF3B98439AAF
:1009E000D8CF3C98449AF8CF5C98DACF4698A1CFFC
:1009F000E7E7F1E08181806181830895E7E7F1E035
:100A00008181806281830895E7E7F1E082818260DD
:100A100082830895E7E7F1E081818064818308950E
:100A2000E7E7F1E08481816084830895E7E7F1E0FE
:100A30008481826084830895E7E7F1E082818062A7
:100A400082830895E7E7F1E08381806483830895DA
:100A5000E7E7F1E08381806183830895E7E7F1E0D0
:100A60008381806883830895E7E7F1E08381846070
:100A700083830895E7E7F1E08381826083830895AB
:100A800020916F013091700130936E0120936D01C0
:100A90001092700110926F014E9906C088E090E0AC
:100AA0009093700180936F014F9909C080916F01FD
:100AB0009091700184609093700180936F011899F8
:100AC00009C080916F0190917001816090937001D5
:100AD00080936F01199909C080916F019091700105
:100AE00082609093700180936F0180916F0190916B
:100AF0007001AC014470552783FF20C0452B49F09D
:100B0000A9014470552723FF0AC0452BC9F027FFD0
:100B100017C080689093700180936F0102C0452BCD
:100B2000C1F780916F01909170019C012270332771
:100B300080FF08C08061232B41F00895452B89F385
:100B40008064E8CF232BC9F3806290937001809377
:100B50006F01F3CFFC0180915F01823009F453C033
:100B600078F49381811114C0933009F489C008F09E
:100B70007FC0913009F481C0923009F497C0089584
:100B8000833009F4A1C0843009F4D3C080E0089513
:100B9000933019F160F49130B1F09230B9F78FEDE4
:100BA00092E090939B0280939A0282E208959132A0
:100BB00011F1923259F781E093E090939B02809378
:100BC0009A028CE7089529EC33E030939B0220933E
:100BD0009A029093640182E108958281813009F440
:100BE0009DC0823099F68DE793E090939B028093AD
:100BF0009A0282E3089581EF92E090939B028093A2
:100C00009A0289E008958381833001F140F48130B4
:100C1000B1F0823009F0BACF83E492E0C2CF8132E2
:100C200021F1823209F0B2CF85E692E090939B02E7
:100C300080939A0281E0809364018AE4089589ECAC
:100C400093E090939B0280939A02C5CF828181307A
:100C500009F464C0823009F099CF8FEA92E0909352
:100C60009B0280939A0280E3089585E592E0C5CFC8
:100C70009132F9F0923201F1089581E392E0E1CFEF
:100C80009281913019F0923049F0089587E092E016
:100C900090939B0280939A028AE2089589EF91E0F3
:100CA00090939B0280939A028EE0089584EA91E0EB
:100CB00078CF86EB91E0A1CF86EC91E090939B02F8
:100CC00080939A0283E3089583818330C9F040F4CE
:100CD000813099F0823009F059CF8EEC90E061CFED
:100CE000813221F1823209F051CF80EF90E0909370
:100CF0009B0280939A028EE6089582E991E0A1CF4B
:100D00008281813059F0823009F040CF8EE591E048
:100D100090939B0280939A0284E308958FEA93E074
:100D200090939B0280939A028AE1089580EE90E06E
:100D300064CF83818230B9F0833061F0813009F073
:100D400025CF2CEB30E030939B0220939A028093C6
:100D5000640141CF8281813009F3823009F016CFDE
:100D600088E890E0D5CF88E690E090939B0280934E
:100D70009A0280E20895CF92DF92EF92FF920F9352
:100D80001F93CF93DF936C018B01D0E0C0E0C017BD
:100D9000D10748F0DF91CF911F910F91FF90EF9015
:100DA000DF90CF9008957801EC1AFD0A89E0E816EB
:100DB000F1041CF088E0E82EF12C80918A0284FF77
:100DC00009C06E2DC6018C0F9D1F0E942114CE0DEF
:100DD000DF1DDDCF0E942914F0CFCF92DF92EF927A
:100DE000FF920F931F93CF93DF936C018B01D0E0A1
:100DF000C0E0C017D10748F0DF91CF911F910F914C
:100E0000FF90EF90DF90CF9008957801EC1AFD0AE3
:100E100089E0E816F1041CF088E0E82EF12C8091BE
:100E2000B60284FF09C06E2DC6018C0F9D1F0E9463
:100E30002514CE0DDF1DDDCF0E942914F0CF81E0F7
:100E400090919F02913009F080E00895519A2FE728
:100E50008CEF9AE0215080409040E1F700C0000004
:100E600051980E94271578940C942914E7E7F1E033
:100E7000118210828FE0828385E583831786168630
:100E8000158614861386128611861086178216829E
:100E90001582148208950E9436070E9440055091E1
:100EA0000401852F8695877040910301813021F0E0
:100EB00090916C01911124C0942F92959370913070
:100EC00009F0B8C020916F0127FF05C090917A0109
:100ED000937F90937A0126FF06C090917A019B7FC1
:100EE000986090937A0124FF05C090917A019C7FCD
:100EF00090937A0190917A019E7F926025FDD0C0F7
:100F00001A9908C0909177019160909377019FEFB3
:100F1000909382011D9908C09091770198609093F9
:100F200077019FEF90937F014D9912C090917701C7
:100F300050FFF3C020916C01222309F4EEC09061B0
:100F4000909377019FEF9093830191E090936B01D1
:100F50001B9910C0843009F4E7C090916C0199236B
:100F600009F4E2C09091780194609093780191E047
:100F700090936B011C9910C0843009F4DEC09091ED
:100F80006C01992309F4D9C09091780198609093ED
:100F9000780191E090936B01329912C090917701A2
:100FA00050FFD4C020916C01222309F4CFC090647B
:100FB000909377019FEF9093850191E090936B015F
:100FC000339908C0909177019061909377019FEFDA
:100FD00090938301349908C0909177019064909325
:100FE00077019FEF9093850146FFB7C03099B5C058
:100FF0003199B3C09091780190619093780191E01C
:1010000090936B01843071F44C9905C08091780104
:10101000846080937801369905C08091780188605A
:1010200080937801359905C0809178018061809323
:10103000780108959230B1F0911162CF20916F0143
:1010400030917001B9016071772727FF3DC0672B90
:1010500051F197E0909379019FEF90937D019093E8
:101060007C014ECF20916F0127FF05C090917A013E
:101070009F7390937A0126FF06C090917A019F7B1F
:10108000906890937A0124FF05C090917A019F7C2B
:1010900090937A0125FF34CF90917A019F7E9062E0
:1010A00090937A012DCF25FF09C091E090937901AB
:1010B0009FEF90937D0190937B0122CF1092790155
:1010C0009FEF90937D011CCF26FF19C0672B39F04D
:1010D00095E0909379019FEF90937E01C0CF25FF1B
:1010E00007C093E0909379019FEF90937E01E3CF47
:1010F00094E0909379019FEF90937E0101CF672B4D
:1011000029F096E0909379019FEFA9CF25FFF8CEC3
:1011100092E0909379019FEFCECF90629093770108
:101120009FEF9093840114CF9091770192609093F8
:1011300077019FEF909381011DCF9091770194608B
:10114000909377019FEF9093800126CF90689093C2
:1011500077019FEF9093860133CF20916901309101
:101160006A0142FD0FC0232B29F090917801926013
:1011700090937801319946CF909178019160909346
:10118000780140CF309905C090917801926090939A
:101190007801232B09F436CFEFCF81E080935F01F4
:1011A0000E9436070C94260788E290E0909368012D
:1011B000809367010E9429140E9478030E94B00363
:1011C0000E944B0760E187E791E00E94251480911F
:1011D000B60284FDEFCF0E942914F9CFE7E7F1E0D2
:1011E000118210828FE0828385E5838308950E94B7
:1011F000EE080E9440058091040186958770409119
:101200000301813021F090916C01911124C0942F41
:1012100092959370913009F07CC020916F0127FF67
:1012200005C090917A01937F90937A0126FF06C0C2
:1012300090917A019B7F986090937A0124FF05C07A
:1012400090917A019C7F90937A0190917A019E7F90
:10125000926025FD92C01A9905C090917701906126
:10126000909377011D9905C09091770190629093BA
:1012700077014D9905C09091770190649093770123
:101280001B9905C0909177019160909377011C990B
:1012900005C090917701926090937701329905C0D3
:1012A00090917701946090937701339905C0909164
:1012B0007701906890937701349905C090917701F8
:1012C000986090937701843071F44C9905C08091B7
:1012D0007801816080937801369905C0809178010A
:1012E00082608093780146FF5DC030995BC0319980
:1012F00059C08091780180618093780181E080936A
:101300006B01359905C080917801806180937801E7
:1013100008959230A1F091119ECF20916F013091EC
:101320007001B9016071772727FF2AC097E0672B0A
:1013300079F591E025FD2CC0109279018CCF209198
:101340006F0127FF05C090917A019F7390937A01F6
:1013500026FF06C090917A019F7B906890937A0156
:1013600024FF05C090917A019F7C90937A0125FF1C
:1013700072CF90917A019F7E906290937A016BCFA9
:1013800026FF09C095E0672B19F493E025FF94E050
:101390009093790160CF96E0672BD1F725FF5BCF63
:1013A00092E0F6CF2091690130916A0142FD0FC0B1
:1013B000232B29F080917801846080937801319902
:1013C000A0CF809178018860809378019ACF30997E
:1013D00005C080917801846080937801232B09F403
:1013E00090CFEFCF82E080935F010E94EE080C94D3
:1013F000260763E087E791E00E9421140E942914E8
:1014000080918A0284FF03C082E080936401089582
:1014100088E290E090936801809367010E9429140C
:101420000E9478030E94B0030E94F70864E070E015
:1014300087E791E00E94BB06F1CFFC0192813381E6
:1014400080915F01823009F452C0B0F42081811193
:101450001BC02076203209F060C02181293009F0BC
:101460005DC0923009F056C010925E0110925D018D
:10147000909376018FEF0895833009F494C08430FF
:1014800009F4C4C080E049C020762032D9F78181B8
:101490008130C1F73330F9F49111F4CF81E28093B8
:1014A000770186E2809378011092790110927A0197
:1014B00010927B0110927C0110927D0110927E01AE
:1014C00087E791E090939B0280939A0282E0809359
:1014D000640188E008953130A9F60E94360787E755
:1014E00091E090939B0280939A0280E1089580811D
:1014F0008076803239F68181813021F6313011F6E3
:101500000E94EE0887E791E090939B0280939A02F5
:1015100083E00895933009F4ABCF08952130E9F7C3
:101520009130C1F49093770184E080937801109218
:10153000790110927A0182E080937B0110927C0104
:1015400010927D0187E791E090939B0280939A022D
:1015500087E00895943009F76091740170917501E6
:10156000611582E0780708F085CF40E052E0461B25
:10157000570B4038510510F040E850E084E080936C
:101580007701409378011092790110927A018BE7EC
:1015900091E00E94C61687E791E090939B028093AA
:1015A0009A0284E8089580818076803209F06ACFBB
:1015B0008181823059F4923008F064CF80E691E066
:1015C00090939B0280939A0281E008958A3031F4CF
:1015D000923008F057CF3093600154CF813009F03A
:1015E00051CF913041F487E791E090939B02809333
:1015F0009A0285E00895923009F044CF80E891E0A6
:1016000090939B0280939A0282E008958081807675
:10161000803261F48181813009F034CF87E791E035
:1016200090939B0280939A0284E10895803409F09C
:1016300029CF8181863009F025CF8BE891E0909306
:101640009B0280939A0282E0809364014ECFEF92D6
:10165000FF921F93CF93DF93FC0180915F01811173
:1016600057C080917601823009F048C020915D0119
:1016700030915E01909174018091750121153105C1
:1016800051F491818281448150E0509373014093E1
:10169000720135966550260F311D30935E012093FF
:1016A0005D01122F10782091720130917301121692
:1016B0001306ECF4283031050CF4622FC62FD0E06D
:1016C000E92EF82EAE01B701CF010E94D616EC0E1E
:1016D000FD1EF0927501E09274018091720190916B
:1016E00073018C1B9D0B9093730180937201812F6A
:1016F000DF91CF911F91FF90EF900895833041F4D7
:1017000091818281909374018093750111E0EFCFF4
:101710001FEFEDCF519A2FE78CEF9AE021508040D8
:101720009040E1F700C00000089510925F010C9412
:1017300026070C942914E7E7F1E081E0808382E03A
:1017400081870895E7E7F1E081818583828186833F
:10175000838187838481808714821382128211821D
:1017600012860895809104018295877039F48FEF75
:101770009FEF90934E0180934D0106C0813081F41C
:1017800010924E0110924D0120910501822F877019
:1017900001F58FEF9FEF9093500180934F011FC091
:1017A000823019F481E090E0E4CF833019F482E0D4
:1017B00090E0DFCF843019F483E090E0DACF853019
:1017C00019F484E090E0D5CF8630F1F685E090E022
:1017D000D0CF813089F41092500110924F01822FA6
:1017E000869586958695877001F58FEF9FEF90938C
:1017F0005201809351011FC0823019F481E090E0C2
:10180000CACF833019F482E090E0C5CF843019F458
:1018100083E090E0C0CF853019F484E090E0BBCF46
:101820008630E9F685E090E0B6CF8130E1F41092A1
:1018300052011092510190910601892F837026FD6B
:101840002BC02FEF3FEF882309F453C021E030E095
:10185000813009F44EC023E030E0823009F449C001
:1018600025E030E046C0823019F481E090E0BFCF3F
:10187000833019F482E090E0BACF843019F483E029
:1018800090E0B5CF853019F484E090E0B0CF863099
:1018900091F685E090E0ABCF811123C01092540106
:1018A00010925301892F8695869587702FEF3FEF11
:1018B000C9F1813019F51092560110925501929597
:1018C0009695937080910701282F217091112FC058
:1018D00009F057C02FEF3FEF309358012093570185
:1018E0002EC022E030E0813021F024E030E0823070
:1018F000C9F63093540120935301D4CF21E030E056
:10190000823081F022E030E0833061F023E030E08B
:10191000843041F024E030E0853021F0863079F6E3
:1019200025E030E03093560120935501C8CF913027
:10193000E1F4211129C01092580110925701982FFB
:10194000969597702FEF3FEFC9F1913019F51092EE
:101950005A011092590182958770A9F58FEF9FEF78
:1019600090935C0180935B0134C0923029F4211183
:101970000EC021E030E0B0CF2111E1CF22E030E015
:10198000ABCF23E030E0A8CF24E030E0A5CF25E0C6
:1019900030E0A2CF21E030E0923081F022E030E070
:1019A000933061F023E030E0943041F024E030E007
:1019B000953021F0963079F625E030E030935A01E9
:1019C00020935901C8CF813081F410925C011092AC
:1019D0005B0120910801822F877001F58FEF9FEF47
:1019E00090933E0180933D011FC0823019F481E045
:1019F00090E0B6CF833019F482E090E0B1CF84302C
:101A000019F483E090E0ACCF853019F484E090E0E5
:101A1000A7CF8630F1F685E090E0A2CF813089F43F
:101A200010923E0110923D01822F869586958695F3
:101A3000877001F58FEF9FEF9093400180933F01F6
:101A40001FC0823019F481E090E0CACF833019F4CE
:101A500082E090E0C5CF843019F483E090E0C0CFFD
:101A6000853019F484E090E0BBCF8630E9F685E05C
:101A700090E0B6CF8130E1F41092400110923F0126
:101A800090910901892F837026FD2BC02FEF3FEF26
:101A9000882309F453C021E030E0813009F44EC0BE
:101AA00023E030E0823009F449C025E030E046C050
:101AB000823019F481E090E0BFCF833019F482E0E6
:101AC00090E0BACF843019F483E090E0B5CF853050
:101AD00019F484E090E0B0CF863091F685E090E094
:101AE000ABCF811123C01092420110924101892F86
:101AF0008695869587702FEF3FEFC9F1813019F5F4
:101B000010924401109243019295969593708091A2
:101B10000A01282F217091112FC009F057C02FEF13
:101B20003FEF30934601209345012EC022E030E084
:101B3000813021F024E030E08230C9F63093420158
:101B400020934101D4CF21E030E0823081F022E0C7
:101B500030E0833061F023E030E0843041F024E075
:101B600030E0853021F0863079F625E030E03093A2
:101B7000440120934301C8CF9130E1F4211129C0E1
:101B80001092460110924501982F969597702FEF6D
:101B90003FEFC9F1913019F51092480110924701B9
:101BA00082958770A9F58FEF9FEF90934A018093FC
:101BB000490134C0923029F421110EC021E030E0F7
:101BC000B0CF2111E1CF22E030E0ABCF23E030E015
:101BD000A8CF24E030E0A5CF25E030E0A2CF21E07F
:101BE00030E0923081F022E030E0933061F023E089
:101BF00030E0943041F024E030E0953021F0963030
:101C000079F625E030E03093480120934701C8CFB2
:101C1000813081F410924A011092490120910B0108
:101C2000822F877001F58FEF9FEF90934C01809387
:101C30004B011FC0823019F481E090E0B6CF8330B1
:101C400019F482E090E0B1CF843019F483E090E0A1
:101C5000ACCF853019F484E090E0A7CF8630F1F660
:101C600085E090E0A2CF813089F410924C0110926F
:101C70004B01822F869586958695877001F58FEFAB
:101C80009FEF90932E0180932D011FC0823019F495
:101C900081E090E0CACF833019F482E090E0C5CFB4
:101CA000843019F483E090E0C0CF853019F484E0EB
:101CB00090E0BBCF8630E9F685E090E0B6CF81308A
:101CC000E1F410922E0110922D0190910C01892FB8
:101CD000837026FD2BC02FEF3FEF882309F453C0FC
:101CE00021E030E0813009F44EC023E030E0823062
:101CF00009F449C025E030E046C0823019F481E0A3
:101D000090E0BFCF833019F482E090E0BACF843006
:101D100019F483E090E0B5CF853019F484E090E0C9
:101D2000B0CF863091F685E090E0ABCF811123C033
:101D30001092300110922F01892F86958695877019
:101D40002FEF3FEFC9F1813019F510923201109257
:101D5000310192959695937080910D01282F2170F5
:101D600091112FC009F057C02FEF3FEF309334018E
:101D7000209333012EC022E030E0813021F024E0B6
:101D800030E08230C9F63093300120932F01D4CF58
:101D900021E030E0823081F022E030E0833061F0F9
:101DA00023E030E0843041F024E030E0853021F061
:101DB000863079F625E030E030933201209331010E
:101DC000C8CF9130E1F4211129C010923401109252
:101DD0003301982F969597702FEF3FEFC9F191300F
:101DE00019F5109236011092350182958770A9F588
:101DF0008FEF9FEF909338018093370134C092307A
:101E000029F421110EC021E030E0B0CF2111E1CF43
:101E100022E030E0ABCF23E030E0A8CF24E030E098
:101E2000A5CF25E030E0A2CF21E030E0923081F074
:101E300022E030E0933061F023E030E0943041F074
:101E400024E030E0953021F0963079F625E030E05E
:101E50003093360120933501C8CF8130F1F41092D0
:101E600038011092370180910E01982F97702FEF53
:101E70003FEF09F43FC0913049F510923A011092BA
:101E800039018695869586958770C9F58FEF9FEF06
:101E900090933C0180933B010895823019F481E0D6
:101EA00090E0A8CF833019F482E090E0A3CF843093
:101EB00019F483E090E09ECF853019F484E090E03F
:101EC00099CF863081F685E090E094CF21E030E034
:101ED000923081F022E030E0933061F023E030E096
:101EE000943041F024E030E0953021F0963049F60E
:101EF00025E030E030933A0120933901C2CF8130A0
:101F000029F410923C0110923B010895823019F49B
:101F100081E090E0BDCF833019F482E090E0B8CF4B
:101F2000843019F483E090E0B3CF853019F484E075
:101F300090E0AECF863009F0AFCF85E090E0A8CF3B
:101F400085E085BD08951092710116BC08958091B9
:101F50006001882329F0809171018F3F21F481E095
:101F60000895A89A1BC080917101A89B17C09091F9
:101F700060018917B0F796B586B5875E86BD86B5D0
:101F8000981708F4A89A9091710185E0890F8093C1
:101F90007101891740F78FEF809371019091710162
:101FA0009F3F19F086B58E3238F481E020916001B0
:101FB0009217B0F680E008959F5F9093710186B507
:101FC0008E5286BDEBCF80916C01882329F11B993D
:101FD00008C08091780180688093780181E08093C7
:101FE0006B011C9908C0809179018160809379010F
:101FF00081E080936B018091030186FFE8C03099F6
:10200000E6C03199E4C080917A01886080937A01BA
:1020100081E080936B0108954E9905C0809178010D
:102020008160809378014F9905C080917801846028
:1020300080937801189905C0809178018860809319
:102040007801199905C080917801826080937801A8
:102050001B9911C0E0912B01F0912C01808191819D
:1020600097FD09C0880F991FFC01E15EFE4F0190AA
:10207000F081E02D09951C9911C0E0912B01F091A0
:102080002C018281938197FD09C0880F991FFC0163
:10209000E15EFE4F0190F081E02D0995329911C06B
:1020A000E0912B01F0912C018481958197FD09C06D
:1020B000880F991FFC01E15EFE4F0190F081E02D39
:1020C00009951A9911C0E0912B01F0912C0180859E
:1020D000918597FD09C0880F991FFC01E15EFE4FB5
:1020E0000190F081E02D09951D9911C0E0912B011F
:1020F000F0912C018285938597FD09C0880F991F67
:10210000FC01E15EFE4F0190F081E02D09954D99B3
:1021100011C0E0912B01F0912C018485958597FDEC
:1021200009C0880F991FFC01E15EFE4F0190F0810C
:10213000E02D0995349911C0E0912B01F0912C010B
:102140008681978197FD09C0880F991FFC01E15E88
:10215000FE4F0190F081E02D0995339911C0E09177
:102160002B01F0912C018685978597FD09C0880F7A
:10217000991FFC01E15EFE4F0190F081E02D099571
:102180002091690130916A018091030182FD0FC0A5
:10219000232B29F080917B01846080937B0131990E
:1021A0000FC080917B01806180937B0109C03099D1
:1021B00005C080917B01846080937B01232B89F78C
:1021C000359905C080917A01886080937A010895DD
:1021D00080916C01882389F08091030186FFE8C01B
:1021E0003099E6C03199E4C080917A01886080938B
:1021F0007A0181E080936B0108954E9905C080912A
:102200007A01806280937A014F9905C080917901AB
:10221000806880937901189905C080917901806464
:1022200080937901199905C080917A01816080932A
:102230007A011B9911C0E0912B01F0912C01808152
:10224000918197FD09C0880F991FFC01ED5EFE4F3B
:102250000190F081E02D09951C9911C0E0912B01AE
:10226000F0912C018281938197FD09C0880F991FFD
:10227000FC01ED5EFE4F0190F081E02D0995329951
:1022800011C0E0912B01F0912C018481958197FD83
:1022900009C0880F991FFC01ED5EFE4F0190F0818F
:1022A000E02D09951A9911C0E0912B01F0912C01B4
:1022B0008085918597FD09C0880F991FFC01ED5E0F
:1022C000FE4F0190F081E02D09951D9911C0E0911C
:1022D0002B01F0912C018285938597FD09C0880F11
:1022E000991FFC01ED5EFE4F0190F081E02D0995F4
:1022F0004D9911C0E0912B01F0912C0184859585B9
:1023000097FD09C0880F991FFC01ED5EFE4F0190FB
:10231000F081E02D0995349911C0E0912B01F091E5
:102320002C018681978197FD09C0880F991FFC01B8
:10233000ED5EFE4F0190F081E02D0995339911C0BB
:10234000E0912B01F0912C018685978597FD09C0BE
:10235000880F991FFC01ED5EFE4F0190F081E02D8A
:1023600009952091690130916A018091030182FDF4
:102370000FC0232B29F080917B01886080937B0123
:1023800031990FC080917B01806280937B0109C0ED
:10239000309905C080917B01886080937B01232B5D
:1023A00089F7359905C080917A01886080937A0118
:1023B00008954E9905C080917801816080937801DD
:1023C0004F9905C0809178018460809378011899B5
:1023D00005C080917801886080937801199905C0C3
:1023E000809178018260809378011A9905C080916C
:1023F00078018068809378011D9905C080917901EA
:102400008160809379011B9905C080917901886072
:10241000809379011C9905C0809179018061809336
:1024200079012091690130916A018091030182FD57
:102430000FC0232B29F0809179018460809379016A
:1024400031990FC080917B01806480937B0109C02A
:10245000309905C080917901846080937901232BA4
:1024600089F7339905C08091810181608093810152
:10247000349905C080918101826080938101089523
:102480000E94A20B0E9478030E94B00390916C01FD
:10249000992369F01A990BC04E9940C02DE431E0A0
:1024A00030932C0120932B0181E080936B0180916C
:1024B000030182958370E1F5911102C00E94D91148
:1024C0000E94A70F811118C090917C018091780122
:1024D000981312C090917D018091790198130CC0DE
:1024E00090917E0180917A01981306C090917F01AE
:1024F00080917B01981741F065E070E087E791E0FB
:102500000E94BB060E94A30F809181018823D1F015
:1025100062E070E080E891E00C94BB06199903C07A
:102520002DE331E0BDCF4F99C2CF2DE231E0B8CFDE
:10253000813019F40E94E30FC3CF823009F60E9464
:10254000E810BECF089583E080935F01809103017E
:1025500081FD17C08F7D8061809303010E94260753
:102560000E9429140E949B0B0E94B20B85E085BD3E
:1025700088E893E190936801809367010E9440127C
:10258000FDCF8F7E8062E8CFE7E7F1E0108284E143
:102590008183138290E1948B92E4958B168A91E06B
:1025A000978B908F92E0918F828F86E0838F8FEF51
:1025B000848F858F868F878F80A381A382A383A337
:1025C0000895E7E7F1E0138A128A118A108A1786C4
:1025D0001686158614861386128611861086178233
:1025E000168215821482128208950E94E1120E94BE
:1025F000400590910401292F26952770213021F064
:1026000080916C01811123C08091030182958370B8
:10261000813009F065C080916F0187FF06C03FEFF0
:10262000309385013FE73093860186FF03C030E891
:102630003093860184FF03C030E83093840185FF26
:1026400006C08FEF809383018FE7809384011A99EE
:1026500003C08FEF80937D011D9903C08FEF80939E
:102660007E014D990DC090FF7BC080916C01882345
:1026700009F476C08FEF8093810181E080936B0134
:102680001B9903C08FEF80937B011C9903C08FEFD0
:1026900080937C0132990DC090FF66C080916C01DF
:1026A000882309F461C08FEF8093820181E08093D9
:1026B0006B01339903C08FEF80938101349903C07C
:1026C0008FEF80938201213009F052C090FD50C0FD
:1026D000309959C08091790180618093790153C00C
:1026E000823009F18111B3CF80916F0187FF05C05E
:1026F0003091790131603093790186FF05C03091C6
:10270000790132603093790184FF05C030917901FD
:1027100034603093790185FF9ACF80917901886088
:102720008093790194CF80916F0187FF06C03FEFBE
:10273000309389013FE730938A0186FF03C030E878
:1027400030938A0184FF03C030E83093880185FF0D
:102750007ECF8FEF809387018FE78093880177CFBB
:102760008FEF80937F018CCF8FEF80938001A1CF7B
:102770002091690130916A018091030182FD0BC0B3
:10278000232B09F0A7CF31990FC080917901806286
:102790008093790109C0309905C0809179018061E9
:1027A00080937901232B89F7089584E080935F015A
:1027B0000E94C4120C94260784E190E09093680173
:1027C000809367010E9429140E9478030E94B0033D
:1027D0000E94F5128091B60284FF06C064E187E78B
:1027E00091E00E942514EECF0E942914F3CF1F938D
:1027F000CF93DF93782F162FEA01888184FF1EC0C4
:10280000898128E882278983AE014E5F5F4FFA01F4
:10281000272F392F710FD9012F5F3F4F8C91819353
:10282000872F821B1816BCF3612FCA010E944F1517
:102830001C5F1883DF91CF911F9108958AE58883EB
:10284000E3CF4AE852E00C94F71346EB52E00C94C5
:10285000F713CF93DF9360919C02635067FD2BC009
:1028600080919902CCE0D0E0C81BD109C056DD4F61
:10287000809198028D3209F0CDC06830D1F483EC9C
:1028800080937F028AE5809362011092970288818B
:10289000807609F464C0CE010E941D0A8F3F09F0C2
:1028A0006DC0988197FD8E8190E8909397028093F8
:1028B000610110929C028091620184FF43C080916B
:1028C00061018F3F09F43EC0C82F893008F0C8E08D
:1028D000982F9C1B9093610190917F0228E892278A
:1028E00090937F02882301F180919A0290919B023C
:1028F0002091970226FFA1C0FC0120E832E04C2F76
:10290000480F5491D9015C932F5F3F4F31964E137E
:10291000F8CF2FEF2C0F30E02F5F3F4F820F931F28
:1029200090939B0280939A026C2F80E892E00E9421
:102930004F1584E08C0FC83019F09FEF9093610120
:102940008093620184E199B1967031F48150D9F796
:1029500010929D0210929602DF91CF9108952A81E4
:10296000109288029981911112C01092890228E870
:1029700032E082E030939B0220939A029F81911172
:1029800096CF9E81981708F092CF892F90CF9530DF
:1029900029F420939D0228E832E0ECCF963011F51F
:1029A0009B81913021F4CE010E94AA050DC0923086
:1029B000D1F3933091F421110BC08BED93E0909300
:1029C0009B0280939A0284E090E49093970266CFF2
:1029D000213049F32230C1F7E6CF913221F3923210
:1029E00099F7E1CF983079F0993019F420939F024C
:1029F000D2CF9A3061F09B3071F69BE490938B02BA
:102A00009093B702C8CF2FE932E081E0B3CF28E836
:102A100032E0FBCF8091970287FF4BCFCE010E941F
:102A2000270B8F3F21F48EE18093620142CF8823F0
:102A300009F43FCF109261013CCFA0E8B2E0FC0165
:102A40002C2F280F31913D932E13FCCF62CFE9E656
:102A5000F0E0808182608083E89AAAE8B2E08BE4AB
:102A600011968C931197E6EBF2E081838AE58C93C3
:102A700080830895A82FB92F80E090E041E050EACC
:102A8000609530E009C02D9182279795879510F0C9
:102A900084279527305EC8F36F5FA8F30895EADFB7
:102AA0008D939D930895CF93CFB7CF93C395499BB3
:102AB000E9F7499B09C0499B07C0499B05C0499B51
:102AC00003C0499B01C0A3C0DF93C0919902DD27D9
:102AD000C056DD4F499B02C0DF91EBCF2F930F9380
:102AE0001F9309B12FEF01FB20F94F933F9319B1C9
:102AF0004FEF012701FB21F93BE031C04E7F012F51
:102B000019B1216028C0102F4D7F2260000009B14B
:102B100029C04B7F2460012F000019B12BC019B1CF
:102B2000477F28602AC04F7E09B120612CC04F7DAD
:102B300019B120622FC04F7B09B1206432C04227F7
:102B400009B149934FEF0000102711FB20F919B18B
:102B50001670C9F1297F91F2012701FB21F909B112
:102B6000237F89F2315058F1102711FB22F919B156
:102B7000277E79F2012701FB23F92F7C81F209B12D
:102B8000102711FB24F92F7971F200C019B1012728
:102B900001FB25F92F7359F200C009B1102711FB71
:102BA00026F9223040F200C019B1012701FB27F9B4
:102BB000243028F64F77206819B10000F9CF11E0D2
:102BC0001CBB002719C03B503195C31BD04011E0FE
:102BD0001CBB0881033CF9F00B34E9F0209196020C
:102BE0001981110F1213EDCF4A81441F093641F1AB
:102BF0000D3211F0013E29F700939E023F914F9153
:102C00001F910F912F91DF91CCB3C0FD4FCFCF918A
:102C1000CFBFCF91189520919E02222379F3109176
:102C20009C021123C1F53430C2F130939C022093F1
:102C30009802109199023BE0311B309399022DC00C
:102C400000919C0201303CF50AE54F7049F4309147
:102C5000620134FD24C000936201CFE7D2E023C0BB
:102C6000423049F030918A0234FD19C000938A0243
:102C7000CBE8D2E018C03091B60234FD10C000930A
:102C8000B602C7EBD2E00FC02795A8F45150A9F4C3
:102C9000220F0000F9CF4AE503C042ED01C0432FE7
:102CA000C4E1D0E032E01AB11660599A1AB90BB1FA
:102CB00020E416E05F93012756E00BB9279520F436
:102CC000515021F4220FF9CF012756E000003B5A62
:102CD0000BB9D0F2279528F4515029F4220F0000A7
:102CE000F9CF012756E027950BB920F4515021F474
:102CF000220FF9CF012756E0299133230BB921F692
:102D0000097F10919D02110FC651D0400BB911F0EF
:102D10001093960211E01CBB02601AB1197F402F7C
:102D2000497F5F9100C000C00BB91AB94BB966CF9B
:102D30000E94E20283309105B1F05CF4813091058C
:102D4000C1F082309105D1F0892B81F090E080E0D4
:102D5000089584309105B9F00597C1F70E94D51305
:102D60000E94DC13F3CF0E940C04F0CF0E94990460
:102D7000EDCF0E94CD080E94D408E8CF0E94F2094E
:102D80000E94080AE3CF0E94A312E0CFDC01CB012E
:102D9000FC01F999FECF06C0F2BDE1BDF89A31966B
:102DA00000B40D9241505040B8F70895DC01CB01BA
:102DB00003C02D910E94E11641505040D0F7089574
:102DC000262FF999FECF1FBA92BD81BD20BD0FB647
:102DD000F894FA9AF99A0FBE01960895F894FFCFE5
:102DE000FFFFFFFFFFFFFFFFFFFFFFFFFFFFFFFFF3
:102DF000FFFFFF1C05220528052E0534053A05F8BE
:102E000004FE0404050A05100516054D01FFFFFF29
:102E1000FFFFFFFFFFFFFFFFFFFFFFFFFFFFFFFFC2
:102E2000FFFFFFFFFFFFFFFFFFFFFFFFFFFFFFFFB2
:102E3000FFFFFFFFFFFFFFFFFFFFFFFFFFFFFFFFA2
:042E40007DFF5A00B8
:00000001FF
