:100000000C94E8010C9405100C9405020C94050264
:100010000C9405020C9405020C9405020C94050244
:100020000C9405020C9405020C9405020C94050234
:100030000C9405020C9405020C9405020C94050224
:100040000C9405020C9405020C9405020C94050214
:100050000C9405020C9405020C9405020C94050204
:100060000C9405020C940502090220000101008095
:100070007D090400000258420000070582032000A9
:100080000407050203080004300344007500610002
:100090006C00200053007400720069006B00650062
:1000A000200058002000560034002000280058008E
:1000B00042006F00780029001201100100000008C2
:1000C0000304298E03030102000109022200010139
:1000D00000803E0904000001030000000921010125
:1000E0000001226E000705810308000405010906CE
:1000F00015002501350045017501A10185010507A0
:100100000952094F0951095009E009E209E109289A
:100110000929092C092B093B093C0904090709098C
:10012000090A090C090E0913091409150916091AF7
:10013000091B091D091E091F092209230926090196
:1001400095208102C0050C0901A101850209E90978
:10015000EA9502810295068101C0300344007500D2
:1001600061006C00200053007400720069006B0095
:1001700065002000580020005600340020002800B0
:100180004D0041004D004500290012011001000002
:1001900000080304288E0303010200010902220063
:1001A000010100803E090400000103000000092154
:1001B00001010001223300070581030800C8060081
:1001C000FF0901A101150026FF00750885019506AC
:1001D0000900B20201850295840900B2020185037B
:1001E00095030900B20201850495830900B202015A
:1001F000C00E034800490044002000450050002A7A
:100200000370006F0068006C002D006D00690063D2
:10021000006800610065006C00400067006D0078B8
:10022000002E00620069007A001201100100000037
:1002300008C016DF050303010200010902220001C4
:100240000100803E090400000103000000092101B3
:10025000010001224A000705810308000105010988
:1002600005A10115002501350045017501950D0514
:10027000091901290D810205010900950381012554
:1002800007463B01750495016514093981429501C2
:1002900009008101450225027502950409300931E2
:1002A000093209358102C02C034400750061006CDD
:1002B00000200053007400720069006B006500208C
:1002C0000058002000560034002000280050004351
:1002D00000290009022200010100803E09040000FB
:1002E0000103000000092101010001227C00070533
:1002F000820310000105010904A101A10275019505
:100300000D150025013500450105091901290D814B
:1003100002950381010501750495012507463B01FE
:10032000651409398142650095018103A1007502B8
:100330009504250245020930093109320935810247
:10034000C0C07508950826FF0046FF000600FF099B
:100350002009210922092309240925092609270939
:10036000280929092A092B950C81020A2126B102A4
:10037000C02E034400750061006C0020005300741F
:1003800000720069006B00650020005800200056D4
:100390000034002000280050005300330029001AC8
:1003A000037A007500720062006F00720067002E11
:1003B0000069006E0066006F00120110010000006D
:1003C00008C016DF0503030102000104030904004D
:1003D00011241FBECFEFD4E0DEBFCDBF11E0A0E0FF
:1003E000B1E0E8E8F3E202C005900D92A234B10753
:1003F000D9F722E0A2E4B1E001C01D92A83CB20707
:10040000E1F70E946C110C94C2110C940000A0E062
:10041000B1E0FC0143963D912191321305C0E817EC
:10042000F907C9F780E0089581E00895CF93DF933D
:10043000D82FC92F0E940702882399F043E150E08A
:1004400060E070E08D2F9C2F0E94AA11ED2FFC2FF1
:10045000A0E0B1E0CF01439621912D93E817F90771
:10046000D9F7DF91CF910895CF93DF93EC0143E16A
:1004700050E060E070E080E091E00E949A1180918D
:100480000001823021F480910101843041F182E049
:10049000888394E0998398E79A8391E09B8390E323
:1004A0009C8324E32D8394E49E839AE09F839CE2C3
:1004B000988793E299872A8728E22B8723E02C8765
:1004C00022E22D879E8796E59F8791E1988B9AE19E
:1004D000998B8A8BCE01DF91CF910C941602E0E0CC
:1004E000F1E0CE01439621912993C817D907D9F796
:1004F000DF91CF910895CF93DF93CDB7DEB76397A8
:100500000FB6F894DEBF0FBECDBFCE0101960E949C
:10051000340231990AC0589A0E94F40930990EC0E9
:100520005898CE0101960E94340263960FB6F89453
:10053000DEBF0FBECDBFDF91CF9108950E94F809B5
:10054000EDCF589A81E090E008955C9A469A589AC7
:1005500082E090E00895589A84E090E00895589AD7
:1005600085E090E008958091040186958670823040
:1005700011F45C9846980E94E90958985B9A90E0BB
:1005800080E0089583E090E00895809102018770F3
:10059000813011F40C94A102823011F40C94A50264
:1005A000843011F40C94AB02853011F40C94AF023A
:1005B0000C94B30217B88FE388B914B885B989E0F1
:1005C0008AB980EE8BB90E947B02809103014E991B
:1005D0003CC08F7C809303018091040186958770D5
:1005E000813011F0843011F45C9A469A80910201B6
:1005F00090E0682F687083FB442740F9242F392F3F
:10060000982F907184FF02C02F5F3F4F482F407496
:1006100086FF02C02F5F3F4F70910301572F51702B
:1006200070FF02C02F5F3F4F782F707285FF02C0AE
:100630002F5F3F4F877019F0233031052CF11B9944
:100640000EC0662361F00C94A102189903C08F7D3F
:100650008061C0CF1999C0CF8F7E8062BBCF1C99BB
:1006600003C041110C94AB021A9903C051110C94B0
:10067000AF021D9903C071110C94B302329925C0C9
:10068000992319F10C94A50222303105E1F41B9B4A
:100690000AC01C9B08C01A9B06C01D9B04C04D9B32
:1006A00002C0339910C08130C1F06111CCCF8230CB
:1006B00089F09111E7CF843021F04111D3CF8530FB
:1006C00011F05111D4CF0C94C5028111FCCF83E0FD
:1006D00090E008954423A9F3C5CF992371F3D2CFB5
:1006E0008091040186958770813051F44C9909C03E
:1006F000369B07C0809103018F7D80618093030149
:1007000008954C9B07C0369905C0809103018F7EE8
:100710008062F4CF4C9BF4CF369BF2CF80910301E3
:100720008F7CECCF85E085BD08951092440116BC06
:10073000A89A08955898109242010895A89B08C05D
:10074000809144018F3F19F08F5F80934401A89AF4
:1007500081E02091440190914301291708F480E041
:100760000895CF9385E085BD8091020183FF1BC072
:100770000E949A030E94A1020E94A8078091420150
:10078000882309F461C08FE0809343010E949503A0
:100790000E949E03882309F45AC08091420182304E
:1007A00011F40E94AF078091030180FF1BC00E94DB
:1007B0009A030E94AF020E948E0E8091420188230C
:1007C00009F448C085E0809343010E9495030E948C
:1007D0009E03882309F441C080914201823011F4C4
:1007E0000E94950E8091020184FF1AC00E949A0314
:1007F0000E94A5020E945908C1E08091420188230D
:1008000079F180E5809343010E9495030E949E0345
:10081000882379F180914201823011F40E946F089F
:100820008091020185FF28C00E949A032FE78CEF78
:100830009AE0215080409040E1F700C000000E9403
:10084000B302CF910C943E040E94DA0E97CF0E941F
:10085000DA0E9ECF0E94DA0EB0CF0E94DA0EB7CF2A
:100860000E94DA0E0E94B106882339F2C093420139
:10087000C4CF0E946008CACFCF910895809104012F
:1008800086958770823061F40E9470038091030125
:1008900082958370813059F5469A5C98549A3E9AB5
:1008A0009091030196FF06C030992DC031992BC05D
:1008B00045983D9A8091040180FF0EC092FD29C0A9
:1008C000309924C0349922C044983C9A309929C068
:1008D000339927C043983B9A86958770833071F689
:1008E000349925C05C9A329924C0469AC7CF823089
:1008F00019F45C9A4698D2CF8111D2CF54983E9881
:100900005C9A469ACDCF3D98459AD4CF3C98449A6C
:10091000DDCF319909C0349907C044983C9A319B86
:10092000D7CF3B98439AD8CF3C98449AF8CF5C985D
:10093000DACF4698A3CFE0E5F1E081818061818341
:100940000895E0E5F1E08181806281830895E0E52A
:10095000F1E08281826082830895E0E5F1E08181A7
:10096000806481830895E0E5F1E08481816084837F
:100970000895E0E5F1E08481826084830895E0E5F4
:10098000F1E08281806282830895E0E5F1E0838175
:10099000806483830895E0E5F1E08381806183834F
:1009A0000895E0E5F1E08381806883830895E0E5C0
:1009B000F1E08381846083830895E0E5F1E0838141
:1009C00082608383089580914701909148019093BC
:1009D00046018093450110924801109247014E99BB
:1009E00006C088E090E090934801809347014F99BA
:1009F00009C080914701909148018460909348011B
:100A000080934701189909C080914701909148014E
:100A100081609093480180934701199909C08091A2
:100A2000470190914801826090934801809347016B
:100A3000809147019091480183FF12C08068909394
:100A400048018093470180914701909148019C01A2
:100A50002270332780FF08C08061232B41F0089566
:100A600082FFF1CF8064EBCF232BC9F38062909398
:100A7000480180934701F3CFFC0180913D01823012
:100A800009F453C078F49381811114C0933009F4B0
:100A900089C008F07FC0913009F481C0923009F418
:100AA00097C00895833009F4A1C0843009F4D3C0FD
:100AB00080E00895933019F160F49130B1F09230F4
:100AC000B9F783ED92E090938A028093890282E2E3
:100AD0000895913211F1923259F785EF92E0909397
:100AE0008A02809389028CE7089529EB33E03093E2
:100AF0008A02209389029093420182E108958281C3
:100B0000813009F49DC0823099F681E793E090939B
:100B10008A02809389028EE2089585EE92E0909396
:100B20008A028093890289E008958381833001F1EC
:100B300040F48130B1F0823009F0BACF8BE392E01B
:100B4000C2CF813221F1823209F0B2CF8DE592E03D
:100B500090938A028093890281E0809342018AE423
:100B6000089589EB93E090938A0280938902C5CF20
:100B70008281813009F464C0823009F099CF87EA1C
:100B800092E090938A02809389028CE208958DE42A
:100B900092E0C5CF9132F9F0923201F1089589E2E5
:100BA00092E0E1CF9281913019F0923049F00895AE
:100BB0008FEF91E090938A02809389028AE20895F0
:100BC00081EF91E090938A02809389028EE00895EC
:100BD0008CE991E078CF8EEA91E0A1CF8EEB91E0A5
:100BE00090938A028093890283E3089583818330FE
:100BF000C9F040F4813099F0823009F059CF8AEC85
:100C000090E061CF813221F1823209F051CF8CEE38
:100C100090E090938A02809389028EE608958AE894
:100C200091E0A1CF8281813059F0823009F040CF2C
:100C30008AE591E090938A028093890280E3089587
:100C40008FE993E090938A02809389028AE1089564
:100C50008CED90E064CF83818230B9F0833061F015
:100C6000813009F025CF28EB30E030938A022093C1
:100C700089028093420141CF8281813009F3823021
:100C800009F016CF88E890E0D5CF88E690E0909301
:100C90008A028093890280E20895CF92DF92EF92D8
:100CA000FF920F931F93CF93DF936C018B01D0E0E2
:100CB000C0E0C017D10748F0DF91CF911F910F918D
:100CC000FF90EF90DF90CF9008957801EC1AFD0A25
:100CD00089E0E816F1041CF088E0E82EF12C809100
:100CE000630284FF09C06E2DC6018C0F9D1F0E94F8
:100CF000D20ECE0DDF1DDDCF0E94DA0EF0CFCF92E7
:100D0000DF92EF92FF920F931F93CF93DF936C01CB
:100D10008B01D0E0C0E0C017D10748F0DF91CF9140
:100D20001F910F91FF90EF90DF90CF900895780181
:100D3000EC1AFD0A89E0E816F1041CF088E0E82EC0
:100D4000F12C8091A50286FF09C06E2DC6018C0F83
:100D50009D1F0E94D60ECE0DDF1DDDCF0E94DA0E44
:100D6000F0CF81E090918E02913009F080E00895FB
:100D7000519A2FE78CEF9AE0215080409040E1F7A4
:100D800000C0000051980E94D90F78940C94DA0E9C
:100D9000E0E5F1E0118210828FE0828385E58383B4
:100DA0001786168615861486138612861186108677
:100DB000178216821582148208950E94C8060E9426
:100DC000E30480914701909148019C0120713327F1
:100DD00087FF95C0232B49F087E0809352018FEF66
:100DE000809356018093550110C085FF09C081E0B2
:100DF000809352018FEF809356018093540105C078
:100E0000109252018FEF809356011A9908C0809179
:100E100050018160809350018FEF80935B011D9999
:100E200008C0809150018860809350018FEF8093BB
:100E300058014D9908C08091500180628093500103
:100E40008FEF80935D011B9908C0809150018260F3
:100E5000809350018FEF80935A011C9908C08091B4
:100E600050018460809350018FEF80935901329933
:100E700008C0809150018068809350018FEF80936B
:100E80005F01339908C080915001806180935001C7
:100E90008FEF80935C01349908C080915001806489
:100EA000809350018FEF80935E01809104018695BD
:100EB0008770843071F44C9905C080915101846031
:100EC00080935101369905C08091510188608093CB
:100ED0005101309905C08091510182608093510188
:100EE000319905C0809151018160809351013599FC
:100EF00005C080915101806180935101089586FF62
:100F000019C0232B39F085E0809352018FEF809335
:100F1000570168CF85FF07C083E0809352018FEFB0
:100F2000809357016ACF84E0809352018FEF8093C2
:100F300057016BCF232B29F086E0809352018FEF6E
:100F400051CF85FF62CF82E0809352018FEF55CF62
:100F500081E080933D010E94C8060C94B8060E946F
:100F6000DA0E0E9470030E94DD0660E180E591E0E8
:100F70000E94D60E8091A50286FDF1CF0E94DA0E66
:100F8000F9CFE0E5F1E0118210828FE0828385E500
:100F9000838308950E94C1070E94E3048091470162
:100FA000909148019C012071332787FF6EC0232B4D
:100FB00021F087E08093520106C085FF02C081E0E6
:100FC000F9CF109252011A9905C0809150018061A9
:100FD000809350011D9905C08091500180628093DB
:100FE00050014D9905C0809150018064809350015B
:100FF0001B9905C0809150018160809350011C991C
:1010000005C080915001826080935001329905C0E3
:1010100080915001846080935001339905C0809184
:101020005001806880935001349905C0809150012F
:101030008860809350018091040186958770843088
:1010400071F44C9905C080915101816080935101E8
:10105000369905C080915101826080935101309989
:1010600005C080915101846080935101319905C080
:1010700080915101886080935101359905C080911C
:101080005101806180935101089586FF0AC0232B8E
:1010900011F085E08FCF85FF02C083E08BCF84E025
:1010A00089CF232B11F086E085CF85FF8CCF82E09E
:1010B00081CF82E080933D010E94C1070C94B80665
:1010C00063E080E591E00E94D20E0E94DA0E8091EA
:1010D000630284FF03C082E08093420108950E946E
:1010E000DA0E0E9470030E94CA0764E070E080E597
:1010F00091E00E944D06F3CFFC01928133818091F3
:101100003D01823009F452C0B0F4208181111BC02E
:101110002076203209F060C02181293009F05DC0BD
:10112000923009F056C010923C0110923B0190930E
:101130004E018FEF0895833009F494C0843009F490
:10114000C4C080E049C020762032D9F78181813047
:10115000C1F73330F9F49111F4CF81E2809350015B
:1011600086E2809351011092520110925301109225
:10117000540110925501109256011092570180E5CA
:1011800091E090938A028093890282E080934201E9
:1011900088E008953130A9F60E94C80680E591E004
:1011A00090938A028093890280E1089580818076FD
:1011B000803239F68181813021F6313011F60E947A
:1011C000C10780E591E090938A028093890283E0D1
:1011D0000895933009F4ABCF08952130E9F79130A9
:1011E000C1F49093500184E0809351011092520118
:1011F0001092530182E08093540110925501109295
:10120000560180E591E090938A028093890287E0FD
:101210000895943009F760914C0170914D0161156A
:1012200082E0780708F085CF40E052E0461B570B7C
:101230004038510510F040E850E084E080935001C0
:1012400040935101109252011092530184E591E0B4
:101250000E949A1180E591E090938A02809389021E
:1012600084E8089580818076803209F06ACF818198
:10127000823059F4923008F064CF8EE391E090937D
:101280008A028093890281E008958A3031F4923095
:1012900008F057CF30933E0154CF813009F051CF41
:1012A000913041F480E591E090938A028093890225
:1012B00085E00895923009F044CF89E591E090935C
:1012C0008A028093890282E008958081807680324C
:1012D00061F48181813009F034CF80E591E0909311
:1012E0008A028093890284E10895803409F029CF2D
:1012F0008181863009F025CF84E691E090938A02BF
:101300008093890282E0809342014ECFEF92FF9258
:101310001F93CF93DF93FC0180913D01811157C052
:1013200080914E01823009F048C020913B013091FC
:101330003C0190914C0180914D012115310551F4F2
:1013400091818281448150E050934B0140934A0146
:1013500035966550260F311D30933C0120933B019B
:10136000122F107820914A0130914B01121613066A
:10137000ECF4283031050CF4622FC62FD0E0E92EB2
:10138000F82EAE01B701CF010E94AA11EC0EFD1E8E
:10139000F0924D01E0924C0180914A0190914B01F5
:1013A0008C1B9D0B90934B0180934A01812FDF9101
:1013B000CF911F91FF90EF900895833041F4918178
:1013C000828190934C0180934D0111E0EFCF1FEF8C
:1013D000EDCF519A2FE78CEF9AE02150804090405A
:1013E000E1F700C00000089510923D010C94B8068A
:1013F0000C94DA0EE0E5F1E081E0808382E0818701
:101400000895E0E5F1E0818185838281868383818F
:1014100087838481808714821382128211821286CC
:101420000895809104018295877039F48FEF9FEFC2
:1014300090932C0180932B0106C0813081F410928F
:101440002C0110922B0120910501822F877001F54C
:101450008FEF9FEF90932E0180932D011FC082305C
:1014600019F481E090E0E4CF833019F482E090E059
:10147000DFCF843019F483E090E0DACF853019F4BF
:1014800084E090E0D5CF8630F1F685E090E0D0CFD3
:10149000813089F410922E0110922D01822F8695B1
:1014A00086958695877001F58FEF9FEF90933001B9
:1014B00080932F011FC0823019F481E090E0CACFE1
:1014C000833019F482E090E0C5CF843019F483E0D2
:1014D00090E0C0CF853019F484E090E0BBCF863037
:1014E000E9F685E090E0B6CF8130E1F4109230016A
:1014F00010922F0190910601892F837026FD2BC039
:101500002FEF3FEF882309F453C021E030E0813012
:1015100009F44EC023E030E0823009F449C025E0F0
:1015200030E046C0823019F481E090E0BFCF8330D4
:1015300019F482E090E0BACF843019F483E090E0AF
:10154000B5CF853019F484E090E0B0CF863091F6C5
:1015500085E090E0ABCF811123C010923201109250
:101560003101892F8695869587702FEF3FEFC9F15E
:10157000813019F5109234011092330192959695AD
:10158000937080910701282F217091112FC009F0CD
:1015900057C02FEF3FEF30933601209335012EC017
:1015A00022E030E0813021F024E030E08230C9F6E2
:1015B0003093320120933101D4CF21E030E08230EA
:1015C00081F022E030E0833061F023E030E08430CD
:1015D00041F024E030E0853021F0863079F625E0D6
:1015E00030E03093340120933301C8CF9130E1F4DF
:1015F000211129C01092360110923501982F96952D
:1016000097702FEF3FEFC9F1913019F51092380123
:101610001092370182958770A9F58FEF9FEF909315
:101620003A01809339010895923029F421110EC0B6
:1016300021E030E0B0CF2111E1CF22E030E0ABCFAC
:1016400023E030E0A8CF24E030E0A5CF25E030E073
:10165000A2CF21E030E0923081F022E030E0933000
:1016600061F023E030E0943041F024E030E0953048
:1016700021F0963079F625E030E030933801209360
:101680003701C8CF813029F410923A011092390104
:101690000895823019F481E090E0C1CF833019F4CD
:1016A00082E090E0BCCF843019F483E090E0B7CFC3
:1016B000853019F484E090E0B2CF863009F0B3CFE2
:1016C00085E090E0ACCF85E085BD0895109249019A
:1016D00016BC089580913E01882329F0809149012C
:1016E0008F3F21F481E00895A89A1BC080914901A1
:1016F000A89B17C090913E018917B0F796B586B5A3
:10170000875E86BD86B5981708F4A89A909149011E
:1017100085E0890F80934901891740F78FEF809307
:101720004901909149019F3F19F086B58E3238F4F6
:1017300081E020913E019217B0F680E008959F5F0E
:101740009093490186B58E5286BDEBCF4E9905C068
:10175000809151018160809351014F9905C0809122
:101760005101846080935101189905C08091510105
:10177000886080935101199905C080915101826060
:10178000809351011B990FC080912B0190912C01E6
:1017900097FD09C0880F991FFC01E15EFE4F019083
:1017A000F081E02D09951C990FC080912D01909139
:1017B0002E0197FD09C0880F991FFC01E15EFE4FC5
:1017C0000190F081E02D099532990FC080912F0191
:1017D0009091300197FD09C0880F991FFC01E15ECF
:1017E000FE4F0190F081E02D09951A990FC080916C
:1017F00033019091340197FD09C0880F991FFC01B6
:10180000E15EFE4F0190F081E02D09951D990FC01A
:10181000809135019091360197FD09C0880F991F7D
:10182000FC01E15EFE4F0190F081E02D09954D999C
:101830000FC0809137019091380197FD09C0880F42
:10184000991FFC01E15EFE4F0190F081E02D0995AA
:1018500034990FC0809131019091320197FD09C0F8
:10186000880F991FFC01E15EFE4F0190F081E02D91
:10187000099533990FC08091390190913A0197FDF4
:1018800009C0880F991FFC01E15EFE4F0190F081B5
:10189000E02D0995309905C08091540184608093B2
:1018A0005401359905C0809153018860809353019C
:1018B00008954E9905C08091530180628093530131
:1018C0004F9905C080915201806880935201189908
:1018D00005C080915201806480935201199905C01E
:1018E000809153018160809353011B990FC08091B7
:1018F0002B0190912C0197FD09C0880F991FFC01C5
:10190000ED5EFE4F0190F081E02D09951C990FC00E
:1019100080912D0190912E0197FD09C0880F991F8C
:10192000FC01ED5EFE4F0190F081E02D09953299AA
:101930000FC080912F019091300197FD09C0880F51
:10194000991FFC01ED5EFE4F0190F081E02D09959D
:101950001A990FC0809133019091340197FD09C00D
:10196000880F991FFC01ED5EFE4F0190F081E02D84
:1019700009951D990FC0809135019091360197FD11
:1019800009C0880F991FFC01ED5EFE4F0190F081A8
:10199000E02D09954D990FC0809137019091380144
:1019A00097FD09C0880F991FFC01ED5EFE4F019065
:1019B000F081E02D099534990FC08091310190910B
:1019C000320197FD09C0880F991FFC01ED5EFE4FA3
:1019D0000190F081E02D099533990FC08091390174
:1019E00090913A0197FD09C0880F991FFC01ED5EA7
:1019F000FE4F0190F081E02D0995309905C080914E
:101A00005401886080935401359905C08091530139
:101A100088608093530108954E9905C080915101CB
:101A20008160809351014F9905C08091510184607C
:101A300080935101189905C080915101886080936D
:101A40005101199905C08091510182608093510123
:101A50001A9905C0809151018068809351011D99A8
:101A600005C0809152018160809352011B9905C08D
:101A7000809152018860809352011C9905C0809129
:101A80005201806180935201309905C080915201CA
:101A9000846080935201339905C080915A0181601E
:101AA00080935A01349905C080915A0182608093D5
:101AB0005A0108950E94010A0E9470038091030157
:101AC0008295837081F50E940C0D0E946A0B811132
:101AD00018C09091550180915101981312C09091B6
:101AE00056018091520198130CC09091570180913A
:101AF0005301981306C09091580180915401981792
:101B000041F065E070E080E591E00E944D060E94A2
:101B1000660B80915A01882381F062E070E089E5CC
:101B200091E00C944D06813019F40E94A60BCDCFA4
:101B3000823059F60E94590CC8CF089583E08093F3
:101B40003D018091030181FD11C08F7D80618093F3
:101B500003010E94B8060E94DA0E0E94FA090E9450
:101B6000110A85E085BD0E945A0DFDCF8F7E8062EF
:101B7000EECFE0E5F1E0108284E18183138290E111
:101B8000948B92E4958B168A91E0978B908F92E0DC
:101B9000918F828F86E0838F8FEF848F858F868FE2
:101BA000878F80A381A382A383A30895E0E5F1E05A
:101BB000138A128A118A108A178616861586148649
:101BC0001386128611861086178216821582148259
:101BD000128208950E94D60D0E94E30480910401B0
:101BE00086958770813019F5809103018295837005
:101BF000813009F053C08091470187FF06C09FEFF5
:101C000090935E019FE790935F0186FF03C090E889
:101C100090935F0184FF03C090E890935D0185FF7E
:101C200006C08FEF80935C018FE780935D011A9966
:101C300003C08FEF809356011D9903C08FEF8093EF
:101C400057014D9903C08FEF809358011B9903C032
:101C50008FEF809354011C9903C08FEF809355013F
:101C6000329903C08FEF80935901339903C08FEFEE
:101C700080935A01349903C08FEF80935B013099B0
:101C800005C080915201806180935201319905C055
:101C9000809152018062809352010895823009F14F
:101CA0008111C5CF8091470187FF05C090915201F6
:101CB00091609093520186FF05C09091520192600D
:101CC0009093520184FF05C09091520194609093CB
:101CD000520185FFACCF8091520188608093520100
:101CE000A6CF8091470187FF06C09FEF90936201C6
:101CF0009FE79093630186FF03C090E89093630190
:101D000084FF03C090E89093610185FF90CF8FEF2F
:101D1000809360018FE78093610189CF84E0809395
:101D20003D010E94B90D0C94B8060E94DA0E0E9483
:101D300070030E94EA0D8091A50286FF06C064E14F
:101D400080E591E00E94D60EF0CF0E94DA0EF3CF2C
:101D50001F93CF93DF93782F162FEA01888184FF9A
:101D60001EC0898128E882278983AE014E5F5F4FBC
:101D7000FA01272F392F710FD9012F5F3F4F8C9117
:101D80008193872F821B1816BCF3612FCA010E9412
:101D900001101C5F1883DF91CF911F9108958AE590
:101DA0008883E3CF43E652E00C94A80E45EA52E064
:101DB0000C94A80ECF93DF9360918B02635067FD64
:101DC0002BC080918802CCE0D0E0C81BD109C1575C
:101DD000DD4F809187028D3209F0CDC06830D1F49B
:101DE00083EC809358028AE58093400110924F0162
:101DF0008881807609F464C0CE010E947C088F3F00
:101E000009F06DC0988197FD8E8190E890934F0105
:101E100080933F0110928B028091400184FF43C068
:101E200080913F018F3F09F43EC0C82F893008F0F0
:101E3000C8E0982F9C1B90933F019091580228E88E
:101E4000922790935802882301F180918902909102
:101E50008A0220914F014C2F480F26FF9FC0FC01A2
:101E600029E532E05491D9015C932F5F3F4F3196C1
:101E70004E13F8CF2FEF2C0F30E02F5F3F4F820F24
:101E8000931F90938A02809389026C2F89E592E0D8
:101E90000E94011084E08C0FC83019F09FEF9093DE
:101EA0003F01809340018AE099B1967031F48150EE
:101EB000D9F710928C0210928602DF91CF9108958B
:101EC0002A81109261029981911112C010926202CE
:101ED00021E632E082E030938A02209389029F81DA
:101EE000911196CF9E81981708F092CF892F90CFAD
:101EF000953029F420938C0221E632E0ECCF963025
:101F000011F59B81913021F4CE010E943C050DC05A
:101F10009230D1F3933091F421110BC08BEC93E00C
:101F200090938A028093890284E090E490934F0119
:101F300066CF213049F32230C1F7E6CF913221F349
:101F4000923299F7E1CF983079F0993019F42093D3
:101F50008E02D2CF9A3061F09B3071F69BE4909361
:101F600064029093A602C8CF2EE832E081E0B3CF9E
:101F700021E632E0FBCF80914F0187FF4BCFCE01AE
:101F80000E9486098F3F21F48EE18093400142CF69
:101F9000882309F43FCF10923F013CCFE9E5F2E0FE
:101FA0009C01D9012F5F3F4F5C9151934213F9CFB0
:101FB00061CFE9E6F0E0808183608083E89AA3E660
:101FC000B2E08BE411968C931197E5EAF2E08183FD
:101FD0008AE58C9380830895A82FB92F80E090E044
:101FE00041E050EA60956F5F58F42D9138EF8227F9
:101FF0009795879510F0842795273F5FC8F3F3CF17
:102000000895EADF8D939D930895CF93CFB7CF9333
:10201000499BFECF499B09C0499B07C0499B05C00E
:10202000499B03C0499B01C0A3C0DF93C0918802B4
:10203000DD27C157DD4F499B02C0DF91EBCF2F93C6
:102040000F931F9309B12FEF01FB20F94F933F939B
:1020500019B14FEF012701FB21F93BE031C04E7F61
:10206000012F19B1216028C0102F4D7F2260000080
:1020700009B129C04B7F2460012F000019B12BC08A
:1020800019B1477F28602AC04F7E09B120612CC05A
:102090004F7D19B120622FC04F7B09B1206432C03F
:1020A000422709B149934FEF0000102711FB20F997
:1020B00019B11670C9F1297F91F2012701FB21F9AD
:1020C00009B1237F89F2315058F1102711FB22F911
:1020D00019B1277E79F2012701FB23F92F7C81F2C8
:1020E00009B1102711FB24F92F7971F200C019B141
:1020F000012701FB25F92F7359F200C009B1102700
:1021000011FB26F9223040F200C019B1012701FB72
:1021100027F9243028F64F77206819B10000F9CF4D
:1021200011E01CBB002719C03B503195C31BD040A8
:1021300011E01CBB0881033CF9F00B34E9F020915D
:1021400086021981110F1213EDCF4A81441F0936FF
:1021500041F10D3211F0013E29F700938D023F91BC
:102160004F911F910F912F91DF91CCB3C0FD50CFB4
:10217000CF91CFBFCF91189500918D02002379F3B5
:1021800010918B021123F9F53430FAF130938B0260
:1021900000938702109188023BE0311B3093880244
:1021A00034C000918B02013074F50AE54F7049F498
:1021B0003091400134FD2BC000934001C8E5D2E0CE
:1021C0002AC0423049F03091630234FD20C00093B0
:1021D0006302C4E6D2E01FC03091A50236FD17C0ED
:1021E0000093A502C6EAD2E016C0052710E00BB99D
:1021F0001FC0052722C0052727C005272CC005279B
:1022000010E00BB933C04AE503C042ED01C0432FD3
:10221000C4E1D0E032E01AB11660599A0BB11AB994
:102220005F9356E020E820FF05270BB92795179507
:102230001C3FD8F620FF052727950BB917951C3FA3
:10224000C0F620FF0527279517950BB91C3F98F678
:1022500020FF0527279517951C3F0BB970F600C086
:10226000499120FF05270BB9279517951C3F38F694
:1022700020FF052727950BB917951C3F38F520FF40
:102280000527279517950BB91C3F10F520FF05274B
:10229000279517951C3F0BB9E8F4242F3A9519F6AA
:1022A000097F5F910BB910918C02110FC651D0407C
:1022B00011F01093860211E01CBB02601AB1197F65
:1022C000402F497F0BB91AB94BB949CF0527D3CF56
:1022D0000527D8CF0527DDCF0E94DA02833091058C
:1022E000B1F05CF481309105C1F082309105D1F0FC
:1022F000892B81F090E080E0089584309105B9F059
:102300000597C1F70E948E0E0E94950EF3CF0E9492
:10231000B103F0CF0E943E04EDCF0E94A8070E94B7
:10232000AF07E8CF0E9459080E946F08E3CF0E94D0
:102330009E0DE0CFDC01CB01FC01F999FECF06C078
:10234000F2BDE1BDF89A319600B40D924150504073
:10235000B8F70895DC01CB0103C02D910E94B5119F
:1023600041505040D0F70895262FF999FECF1FBA5B
:1023700092BD81BD20BD0FB6F894FA9AF99A0FBEAE
:0823800001960895F894FFCFC7
:10238800FFFFFFFFFFFFFFFFFFFFFFFFFFFFFFFF55
:10239800FFFFFFBF04C504CB04D104D704DD049BB1
:1023A80004A104A704AD04B304B904FFFFFFFFFFB1
:1023B800FFFFFFFFFFFFFFFFFFFFFFFFFFFF7DFFA7
:0223C8005A00B9
:00000001FF
